{
  "contractName": "Admin",
  "abi": [
    {
      "inputs": [],
      "name": "administrate",
      "outputs": [
        {
          "internalType": "address",
          "name": "",
          "type": "address"
        }
      ],
      "stateMutability": "view",
      "type": "function"
    }
  ],
  "bytecode": "0x6080604052336000806101000a81548173ffffffffffffffffffffffffffffffffffffffff021916908373ffffffffffffffffffffffffffffffffffffffff16021790555034801561005057600080fd5b5060fc8061005f6000396000f3fe6080604052348015600f57600080fd5b506004361060285760003560e01c8063328f669114602d575b600080fd5b60336047565b604051603e919060ad565b60405180910390f35b60008060009054906101000a900473ffffffffffffffffffffffffffffffffffffffff16905090565b600073ffffffffffffffffffffffffffffffffffffffff82169050919050565b60006099826070565b9050919050565b60a7816090565b82525050565b600060208201905060c0600083018460a0565b9291505056fea2646970667358221220185316a3068b818f2b896be9667853e607401d89b45b79cb024ce7adc6e9ea4264736f6c634300080f0033",
  "immutableReferences": {},
  "source": "pragma solidity ^0.8.7;\r\n\r\ncontract Admin {\r\n    address admin = msg.sender;\r\n\r\n    function administrate() public view returns(address) {\r\n        return admin;\r\n    }\r\n\r\n    modifier onlyadmin { \r\n        require(msg.sender == admin, \"You are not administrator!\");\r\n        _;\r\n    }\r\n}\r\n\r\ncontract Vibor is Admin{\r\n    modifier onlycommis(uint _index) {\r\n        require(mem[_index][msg.sender], \"You are not a commiss member!\");\r\n        _;\r\n    }\r\n    struct Voting {\r\n    \tstring name;\r\n    \tstring date;\r\n    }\r\n    \r\n    struct Candidate {\r\n        string fName;\r\n        uint score;\r\n    }\r\n\r\n    Voting[] votings; // список голосований\r\n\r\n    mapping(uint=>Candidate[]) candidates; // список решений в голосовании\r\n    mapping(uint=>mapping(address=>bool)) izb; // список избирателей\r\n    mapping(address=>string) izb_fio; // список имен избирателей\r\n    mapping(uint=>mapping(address=>uint)) result;\r\n\r\n    mapping(uint=>mapping(address=>bool)) mem;\r\n\r\n    function addVote (string memory _date, string memory _name) onlyadmin public returns(uint){\r\n        Voting memory v;\r\n        v.name = _name;\r\n        v.date = _date;\r\n        votings.push(v);\r\n        return votings.length;\r\n    }\r\n\r\n    function addMember (address _addr, uint _index) onlyadmin public {\r\n        if (_index < votings.length) {\r\n            mem[_index][_addr] = true;\r\n        }   \r\n        else revert(\"Index is out of range!\");\r\n    }\r\n\r\n    function addCandidate (string memory _name, uint _index) onlycommis(_index) public {\r\n        Candidate memory c;\r\n        c.fName = _name;\r\n        c.score = 0;\r\n        if (_index < votings.length) \r\n            candidates[_index].push(c);\r\n        else revert(\"Index is out of range!\");\r\n    }\r\n\r\n    function addIzbir (address _addr, uint _index, string memory _name) onlycommis(_index) public {\r\n        if (_index < votings.length) {\r\n            izb[_index][_addr] = true;\r\n            izb_fio[_addr] = _name;           \r\n        }   \r\n        else revert(\"Index is out of range!\");\r\n    }\r\n\r\n    function checkIzb (address _addr, uint _index) public view returns (bool) {\r\n        return izb[_index][_addr];\r\n    }\r\n\r\n    function checkMem (address _addr, uint _index) public view returns (bool) {\r\n        return mem[_index][_addr];\r\n    }\r\n\r\n    function getCandidates (uint index) view public returns (string[] memory names, uint[] memory ind) {\r\n        names = new string[](candidates[index].length);\r\n        ind = new uint[](candidates[index].length);\r\n        for(uint i=0;i<candidates[index].length;i++) {\r\n            names[i] = candidates[index][i].fName;\r\n            ind[i] = i;\r\n        } \r\n        return (names,ind);\r\n    }\r\n\r\n    function getResults (uint index) view public returns (Candidate[] memory){\r\n        return candidates[index];\r\n    }   \r\n\r\n    function golosovanie (uint _index, address _addr, uint choice) public {\r\n        if (_index < votings.length){\r\n            if (izb[_index][_addr] == true) {\r\n                if (choice < candidates[_index].length){\r\n                    candidates[_index][choice].score+=1;\r\n                    izb[_index][_addr] = false;\r\n                }\r\n            }\r\n            else revert(\"You are not on list or had already voted!\");\r\n        } \r\n        else revert(\"Index is out of range!\");\r\n    }\r\n\r\n    function getVotings(uint index) public view returns(string memory) {\r\n        return votings[index].name;\r\n    }\r\n}",
  "sourcePath": "F:\\ETHER\\contracts\\Golos.sol",
  "compiler": {
    "name": "solc",
    "version": "0.8.15+commit.e14f2714.Emscripten.clang"
  },
  "schemaVersion": "3.4.7",
  "updatedAt": "2022-06-21T11:34:54.261Z",
  "devdoc": {
    "kind": "dev",
    "methods": {},
    "version": 1
  },
  "userdoc": {
    "kind": "user",
    "methods": {},
    "version": 1
  }
}