{
  "contractName": "Vibor",
  "abi": [
    {
      "inputs": [],
      "name": "administrate",
      "outputs": [
        {
          "internalType": "address",
          "name": "",
          "type": "address"
        }
      ],
      "stateMutability": "view",
      "type": "function",
      "constant": true
    },
    {
      "inputs": [
        {
          "internalType": "string",
          "name": "_date",
          "type": "string"
        },
        {
          "internalType": "string",
          "name": "_name",
          "type": "string"
        }
      ],
      "name": "addVote",
      "outputs": [
        {
          "internalType": "uint256",
          "name": "",
          "type": "uint256"
        }
      ],
      "stateMutability": "nonpayable",
      "type": "function"
    },
    {
      "inputs": [
        {
          "internalType": "address",
          "name": "_addr",
          "type": "address"
        },
        {
          "internalType": "uint256",
          "name": "_index",
          "type": "uint256"
        }
      ],
      "name": "addMember",
      "outputs": [],
      "stateMutability": "nonpayable",
      "type": "function"
    },
    {
      "inputs": [
        {
          "internalType": "string",
          "name": "_name",
          "type": "string"
        },
        {
          "internalType": "uint256",
          "name": "_index",
          "type": "uint256"
        }
      ],
      "name": "addCandidate",
      "outputs": [],
      "stateMutability": "nonpayable",
      "type": "function"
    },
    {
      "inputs": [
        {
          "internalType": "address",
          "name": "_addr",
          "type": "address"
        },
        {
          "internalType": "uint256",
          "name": "_index",
          "type": "uint256"
        },
        {
          "internalType": "string",
          "name": "_name",
          "type": "string"
        }
      ],
      "name": "addIzbir",
      "outputs": [],
      "stateMutability": "nonpayable",
      "type": "function"
    },
    {
      "inputs": [
        {
          "internalType": "address",
          "name": "_addr",
          "type": "address"
        },
        {
          "internalType": "uint256",
          "name": "_index",
          "type": "uint256"
        }
      ],
      "name": "checkIzb",
      "outputs": [
        {
          "internalType": "bool",
          "name": "",
          "type": "bool"
        }
      ],
      "stateMutability": "view",
      "type": "function",
      "constant": true
    },
    {
      "inputs": [
        {
          "internalType": "address",
          "name": "_addr",
          "type": "address"
        },
        {
          "internalType": "uint256",
          "name": "_index",
          "type": "uint256"
        }
      ],
      "name": "checkMem",
      "outputs": [
        {
          "internalType": "bool",
          "name": "",
          "type": "bool"
        }
      ],
      "stateMutability": "view",
      "type": "function",
      "constant": true
    },
    {
      "inputs": [
        {
          "internalType": "uint256",
          "name": "index",
          "type": "uint256"
        }
      ],
      "name": "getCandidates",
      "outputs": [
        {
          "internalType": "string[]",
          "name": "names",
          "type": "string[]"
        },
        {
          "internalType": "uint256[]",
          "name": "ind",
          "type": "uint256[]"
        }
      ],
      "stateMutability": "view",
      "type": "function",
      "constant": true
    },
    {
      "inputs": [
        {
          "internalType": "uint256",
          "name": "index",
          "type": "uint256"
        }
      ],
      "name": "getResults",
      "outputs": [
        {
          "components": [
            {
              "internalType": "string",
              "name": "fName",
              "type": "string"
            },
            {
              "internalType": "uint256",
              "name": "score",
              "type": "uint256"
            }
          ],
          "internalType": "struct Vibor.Candidate[]",
          "name": "",
          "type": "tuple[]"
        }
      ],
      "stateMutability": "view",
      "type": "function",
      "constant": true
    },
    {
      "inputs": [
        {
          "internalType": "uint256",
          "name": "_index",
          "type": "uint256"
        },
        {
          "internalType": "address",
          "name": "_addr",
          "type": "address"
        },
        {
          "internalType": "uint256",
          "name": "choice",
          "type": "uint256"
        }
      ],
      "name": "golosovanie",
      "outputs": [],
      "stateMutability": "nonpayable",
      "type": "function"
    },
    {
      "inputs": [
        {
          "internalType": "uint256",
          "name": "index",
          "type": "uint256"
        }
      ],
      "name": "getVotings",
      "outputs": [
        {
          "internalType": "string",
          "name": "",
          "type": "string"
        }
      ],
      "stateMutability": "view",
      "type": "function",
      "constant": true
    }
  ],
  "bytecode": "0x6080604052336000806101000a81548173ffffffffffffffffffffffffffffffffffffffff021916908373ffffffffffffffffffffffffffffffffffffffff16021790555034801561005057600080fd5b50611cbd806100606000396000f3fe608060405234801561001057600080fd5b50600436106100a95760003560e01c8063bae26f4d11610071578063bae26f4d14610179578063e23cec7b146101a9578063e9457747146101c5578063f1373f16146101f5578063f2d0c11c14610211578063f721769a1461022d576100a9565b8063328f6691146100ae5780633e39a7a5146100cc57806381a60c0d146100fd57806398041ea31461012d578063ad3d539d14610149575b600080fd5b6100b661025d565b6040516100c39190610ed1565b60405180910390f35b6100e660048036038101906100e19190610f36565b610286565b6040516100f492919061117c565b60405180910390f35b61011760048036038101906101129190610f36565b610487565b60405161012491906112b2565b60405180910390f35b61014760048036038101906101429190611300565b610595565b005b610163600480360381019061015e9190611300565b6106dd565b604051610170919061135b565b60405180910390f35b610193600480360381019061018e91906114ab565b610745565b6040516101a09190611532565b60405180910390f35b6101c360048036038101906101be919061154d565b610859565b005b6101df60048036038101906101da9190610f36565b6109c5565b6040516101ec91906115f3565b60405180910390f35b61020f600480360381019061020a9190611615565b610a7c565b005b61022b60048036038101906102269190611684565b610c23565b005b61024760048036038101906102429190611300565b610df4565b604051610254919061135b565b60405180910390f35b60008060009054906101000a900473ffffffffffffffffffffffffffffffffffffffff16905090565b606080600260008481526020019081526020016000208054905067ffffffffffffffff8111156102b9576102b8611380565b5b6040519080825280602002602001820160405280156102ec57816020015b60608152602001906001900390816102d75790505b509150600260008481526020019081526020016000208054905067ffffffffffffffff81111561031f5761031e611380565b5b60405190808252806020026020018201604052801561034d5781602001602082028036833780820191505090505b50905060005b600260008581526020019081526020016000208054905081101561048157600260008581526020019081526020016000208181548110610396576103956116d7565b5b906000526020600020906002020160000180546103b290611735565b80601f01602080910402602001604051908101604052809291908181526020018280546103de90611735565b801561042b5780601f106104005761010080835404028352916020019161042b565b820191906000526020600020905b81548152906001019060200180831161040e57829003601f168201915b5050505050838281518110610443576104426116d7565b5b602002602001018190525080828281518110610462576104616116d7565b5b602002602001018181525050808061047990611795565b915050610353565b50915091565b606060026000838152602001908152602001600020805480602002602001604051908101604052809291908181526020016000905b8282101561058a57838290600052602060002090600202016040518060400160405290816000820180546104ef90611735565b80601f016020809104026020016040519081016040528092919081815260200182805461051b90611735565b80156105685780601f1061053d57610100808354040283529160200191610568565b820191906000526020600020905b81548152906001019060200180831161054b57829003601f168201915b50505050508152602001600182015481525050815260200190600101906104bc565b505050509050919050565b60008054906101000a900473ffffffffffffffffffffffffffffffffffffffff1673ffffffffffffffffffffffffffffffffffffffff163373ffffffffffffffffffffffffffffffffffffffff1614610623576040517f08c379a000000000000000000000000000000000000000000000000000000000815260040161061a90611829565b60405180910390fd5b60018054905081101561069e5760016006600083815260200190815260200160002060008473ffffffffffffffffffffffffffffffffffffffff1673ffffffffffffffffffffffffffffffffffffffff16815260200190815260200160002060006101000a81548160ff0219169083151502179055506106d9565b6040517f08c379a00000000000000000000000000000000000000000000000000000000081526004016106d090611895565b60405180910390fd5b5050565b60006003600083815260200190815260200160002060008473ffffffffffffffffffffffffffffffffffffffff1673ffffffffffffffffffffffffffffffffffffffff16815260200190815260200160002060009054906101000a900460ff16905092915050565b60008060009054906101000a900473ffffffffffffffffffffffffffffffffffffffff1673ffffffffffffffffffffffffffffffffffffffff163373ffffffffffffffffffffffffffffffffffffffff16146107d6576040517f08c379a00000000000000000000000000000000000000000000000000000000081526004016107cd90611829565b60405180910390fd5b6107de610e5c565b828160000181905250838160200181905250600181908060018154018082558091505060019003906000526020600020906002020160009091909190915060008201518160000190816108319190611a61565b5060208201518160010190816108479190611a61565b50505060018054905091505092915050565b806006600082815260200190815260200160002060003373ffffffffffffffffffffffffffffffffffffffff1673ffffffffffffffffffffffffffffffffffffffff16815260200190815260200160002060009054906101000a900460ff166108f7576040517f08c379a00000000000000000000000000000000000000000000000000000000081526004016108ee90611b7f565b60405180910390fd5b6108ff610e76565b8381600001819052506000816020018181525050600180549050831015610984576002600084815260200190815260200160002081908060018154018082558091505060019003906000526020600020906002020160009091909190915060008201518160000190816109729190611a61565b506020820151816001015550506109bf565b6040517f08c379a00000000000000000000000000000000000000000000000000000000081526004016109b690611895565b60405180910390fd5b50505050565b6060600182815481106109db576109da6116d7565b5b906000526020600020906002020160000180546109f790611735565b80601f0160208091040260200160405190810160405280929190818152602001828054610a2390611735565b8015610a705780601f10610a4557610100808354040283529160200191610a70565b820191906000526020600020905b815481529060010190602001808311610a5357829003601f168201915b50505050509050919050565b816006600082815260200190815260200160002060003373ffffffffffffffffffffffffffffffffffffffff1673ffffffffffffffffffffffffffffffffffffffff16815260200190815260200160002060009054906101000a900460ff16610b1a576040517f08c379a0000000000000000000000000000000000000000000000000000000008152600401610b1190611b7f565b60405180910390fd5b600180549050831015610be25760016003600085815260200190815260200160002060008673ffffffffffffffffffffffffffffffffffffffff1673ffffffffffffffffffffffffffffffffffffffff16815260200190815260200160002060006101000a81548160ff02191690831515021790555081600460008673ffffffffffffffffffffffffffffffffffffffff1673ffffffffffffffffffffffffffffffffffffffff1681526020019081526020016000209081610bdc9190611a61565b50610c1d565b6040517f08c379a0000000000000000000000000000000000000000000000000000000008152600401610c1490611895565b60405180910390fd5b50505050565b600180549050831015610db457600115156003600085815260200190815260200160002060008473ffffffffffffffffffffffffffffffffffffffff1673ffffffffffffffffffffffffffffffffffffffff16815260200190815260200160002060009054906101000a900460ff16151503610d74576002600084815260200190815260200160002080549050811015610d6f576001600260008581526020019081526020016000208281548110610cde57610cdd6116d7565b5b90600052602060002090600202016001016000828254610cfe9190611b9f565b9250508190555060006003600085815260200190815260200160002060008473ffffffffffffffffffffffffffffffffffffffff1673ffffffffffffffffffffffffffffffffffffffff16815260200190815260200160002060006101000a81548160ff0219169083151502179055505b610daf565b6040517f08c379a0000000000000000000000000000000000000000000000000000000008152600401610da690611c67565b60405180910390fd5b610def565b6040517f08c379a0000000000000000000000000000000000000000000000000000000008152600401610de690611895565b60405180910390fd5b505050565b60006006600083815260200190815260200160002060008473ffffffffffffffffffffffffffffffffffffffff1673ffffffffffffffffffffffffffffffffffffffff16815260200190815260200160002060009054906101000a900460ff16905092915050565b604051806040016040528060608152602001606081525090565b604051806040016040528060608152602001600081525090565b600073ffffffffffffffffffffffffffffffffffffffff82169050919050565b6000610ebb82610e90565b9050919050565b610ecb81610eb0565b82525050565b6000602082019050610ee66000830184610ec2565b92915050565b6000604051905090565b600080fd5b600080fd5b6000819050919050565b610f1381610f00565b8114610f1e57600080fd5b50565b600081359050610f3081610f0a565b92915050565b600060208284031215610f4c57610f4b610ef6565b5b6000610f5a84828501610f21565b91505092915050565b600081519050919050565b600082825260208201905092915050565b6000819050602082019050919050565b600081519050919050565b600082825260208201905092915050565b60005b83811015610fc9578082015181840152602081019050610fae565b83811115610fd8576000848401525b50505050565b6000601f19601f8301169050919050565b6000610ffa82610f8f565b6110048185610f9a565b9350611014818560208601610fab565b61101d81610fde565b840191505092915050565b60006110348383610fef565b905092915050565b6000602082019050919050565b600061105482610f63565b61105e8185610f6e565b93508360208202850161107085610f7f565b8060005b858110156110ac578484038952815161108d8582611028565b94506110988361103c565b925060208a01995050600181019050611074565b50829750879550505050505092915050565b600081519050919050565b600082825260208201905092915050565b6000819050602082019050919050565b6110f381610f00565b82525050565b600061110583836110ea565b60208301905092915050565b6000602082019050919050565b6000611129826110be565b61113381856110c9565b935061113e836110da565b8060005b8381101561116f57815161115688826110f9565b975061116183611111565b925050600181019050611142565b5085935050505092915050565b600060408201905081810360008301526111968185611049565b905081810360208301526111aa818461111e565b90509392505050565b600081519050919050565b600082825260208201905092915050565b6000819050602082019050919050565b600060408301600083015184820360008601526111fc8282610fef565b915050602083015161121160208601826110ea565b508091505092915050565b600061122883836111df565b905092915050565b6000602082019050919050565b6000611248826111b3565b61125281856111be565b935083602082028501611264856111cf565b8060005b858110156112a05784840389528151611281858261121c565b945061128c83611230565b925060208a01995050600181019050611268565b50829750879550505050505092915050565b600060208201905081810360008301526112cc818461123d565b905092915050565b6112dd81610eb0565b81146112e857600080fd5b50565b6000813590506112fa816112d4565b92915050565b6000806040838503121561131757611316610ef6565b5b6000611325858286016112eb565b925050602061133685828601610f21565b9150509250929050565b60008115159050919050565b61135581611340565b82525050565b6000602082019050611370600083018461134c565b92915050565b600080fd5b600080fd5b7f4e487b7100000000000000000000000000000000000000000000000000000000600052604160045260246000fd5b6113b882610fde565b810181811067ffffffffffffffff821117156113d7576113d6611380565b5b80604052505050565b60006113ea610eec565b90506113f682826113af565b919050565b600067ffffffffffffffff82111561141657611415611380565b5b61141f82610fde565b9050602081019050919050565b82818337600083830152505050565b600061144e611449846113fb565b6113e0565b90508281526020810184848401111561146a5761146961137b565b5b61147584828561142c565b509392505050565b600082601f83011261149257611491611376565b5b81356114a284826020860161143b565b91505092915050565b600080604083850312156114c2576114c1610ef6565b5b600083013567ffffffffffffffff8111156114e0576114df610efb565b5b6114ec8582860161147d565b925050602083013567ffffffffffffffff81111561150d5761150c610efb565b5b6115198582860161147d565b9150509250929050565b61152c81610f00565b82525050565b60006020820190506115476000830184611523565b92915050565b6000806040838503121561156457611563610ef6565b5b600083013567ffffffffffffffff81111561158257611581610efb565b5b61158e8582860161147d565b925050602061159f85828601610f21565b9150509250929050565b600082825260208201905092915050565b60006115c582610f8f565b6115cf81856115a9565b93506115df818560208601610fab565b6115e881610fde565b840191505092915050565b6000602082019050818103600083015261160d81846115ba565b905092915050565b60008060006060848603121561162e5761162d610ef6565b5b600061163c868287016112eb565b935050602061164d86828701610f21565b925050604084013567ffffffffffffffff81111561166e5761166d610efb565b5b61167a8682870161147d565b9150509250925092565b60008060006060848603121561169d5761169c610ef6565b5b60006116ab86828701610f21565b93505060206116bc868287016112eb565b92505060406116cd86828701610f21565b9150509250925092565b7f4e487b7100000000000000000000000000000000000000000000000000000000600052603260045260246000fd5b7f4e487b7100000000000000000000000000000000000000000000000000000000600052602260045260246000fd5b6000600282049050600182168061174d57607f821691505b6020821081036117605761175f611706565b5b50919050565b7f4e487b7100000000000000000000000000000000000000000000000000000000600052601160045260246000fd5b60006117a082610f00565b91507fffffffffffffffffffffffffffffffffffffffffffffffffffffffffffffffff82036117d2576117d1611766565b5b600182019050919050565b7f596f7520617265206e6f742061646d696e6973747261746f7221000000000000600082015250565b6000611813601a836115a9565b915061181e826117dd565b602082019050919050565b6000602082019050818103600083015261184281611806565b9050919050565b7f496e646578206973206f7574206f662072616e67652100000000000000000000600082015250565b600061187f6016836115a9565b915061188a82611849565b602082019050919050565b600060208201905081810360008301526118ae81611872565b9050919050565b60008190508160005260206000209050919050565b60006020601f8301049050919050565b600082821b905092915050565b6000600883026119177fffffffffffffffffffffffffffffffffffffffffffffffffffffffffffffffff826118da565b61192186836118da565b95508019841693508086168417925050509392505050565b6000819050919050565b600061195e61195961195484610f00565b611939565b610f00565b9050919050565b6000819050919050565b61197883611943565b61198c61198482611965565b8484546118e7565b825550505050565b600090565b6119a1611994565b6119ac81848461196f565b505050565b5b818110156119d0576119c5600082611999565b6001810190506119b2565b5050565b601f821115611a15576119e6816118b5565b6119ef846118ca565b810160208510156119fe578190505b611a12611a0a856118ca565b8301826119b1565b50505b505050565b600082821c905092915050565b6000611a3860001984600802611a1a565b1980831691505092915050565b6000611a518383611a27565b9150826002028217905092915050565b611a6a82610f8f565b67ffffffffffffffff811115611a8357611a82611380565b5b611a8d8254611735565b611a988282856119d4565b600060209050601f831160018114611acb5760008415611ab9578287015190505b611ac38582611a45565b865550611b2b565b601f198416611ad9866118b5565b60005b82811015611b0157848901518255600182019150602085019450602081019050611adc565b86831015611b1e5784890151611b1a601f891682611a27565b8355505b6001600288020188555050505b505050505050565b7f596f7520617265206e6f74206120636f6d6d697373206d656d62657221000000600082015250565b6000611b69601d836115a9565b9150611b7482611b33565b602082019050919050565b60006020820190508181036000830152611b9881611b5c565b9050919050565b6000611baa82610f00565b9150611bb583610f00565b9250827fffffffffffffffffffffffffffffffffffffffffffffffffffffffffffffffff03821115611bea57611be9611766565b5b828201905092915050565b7f596f7520617265206e6f74206f6e206c697374206f722068616420616c72656160008201527f647920766f746564210000000000000000000000000000000000000000000000602082015250565b6000611c516029836115a9565b9150611c5c82611bf5565b604082019050919050565b60006020820190508181036000830152611c8081611c44565b905091905056fea264697066735822122000dd810e4c8e7bdd4e6aa105c17d533c1e055844e90d0bc8dac70dcefbed8f3a64736f6c634300080f0033",
  "immutableReferences": {},
  "source": "pragma solidity ^0.8.7;\r\n\r\ncontract Admin {\r\n    address admin = msg.sender;\r\n\r\n    function administrate() public view returns(address) {\r\n        return admin;\r\n    }\r\n\r\n    modifier onlyadmin { \r\n        require(msg.sender == admin, \"You are not administrator!\");\r\n        _;\r\n    }\r\n}\r\n\r\ncontract Vibor is Admin{\r\n    modifier onlycommis(uint _index) {\r\n        require(mem[_index][msg.sender], \"You are not a commiss member!\");\r\n        _;\r\n    }\r\n    struct Voting {\r\n    \tstring name;\r\n    \tstring date;\r\n    }\r\n    \r\n    struct Candidate {\r\n        string fName;\r\n        uint score;\r\n    }\r\n\r\n    Voting[] votings; //  \r\n\r\n    mapping(uint=>Candidate[]) candidates; //    \r\n    mapping(uint=>mapping(address=>bool)) izb; //  \r\n    mapping(address=>string) izb_fio; //   \r\n    mapping(uint=>mapping(address=>uint)) result;\r\n\r\n    mapping(uint=>mapping(address=>bool)) mem;\r\n\r\n    function addVote (string memory _date, string memory _name) onlyadmin public returns(uint){\r\n        Voting memory v;\r\n        v.name = _name;\r\n        v.date = _date;\r\n        votings.push(v);\r\n        return votings.length;\r\n    }\r\n\r\n    function addMember (address _addr, uint _index) onlyadmin public {\r\n        if (_index < votings.length) {\r\n            mem[_index][_addr] = true;\r\n        }   \r\n        else revert(\"Index is out of range!\");\r\n    }\r\n\r\n    function addCandidate (string memory _name, uint _index) onlycommis(_index) public {\r\n        Candidate memory c;\r\n        c.fName = _name;\r\n        c.score = 0;\r\n        if (_index < votings.length) \r\n            candidates[_index].push(c);\r\n        else revert(\"Index is out of range!\");\r\n    }\r\n\r\n    function addIzbir (address _addr, uint _index, string memory _name) onlycommis(_index) public {\r\n        if (_index < votings.length) {\r\n            izb[_index][_addr] = true;\r\n            izb_fio[_addr] = _name;           \r\n        }   \r\n        else revert(\"Index is out of range!\");\r\n    }\r\n\r\n    function checkIzb (address _addr, uint _index) public view returns (bool) {\r\n        return izb[_index][_addr];\r\n    }\r\n\r\n    function checkMem (address _addr, uint _index) public view returns (bool) {\r\n        return mem[_index][_addr];\r\n    }\r\n\r\n    function getCandidates (uint index) view public returns (string[] memory names, uint[] memory ind) {\r\n        names = new string[](candidates[index].length);\r\n        ind = new uint[](candidates[index].length);\r\n        for(uint i=0;i<candidates[index].length;i++) {\r\n            names[i] = candidates[index][i].fName;\r\n            ind[i] = i;\r\n        } \r\n        return (names,ind);\r\n    }\r\n\r\n    function getResults (uint index) view public returns (Candidate[] memory){\r\n        return candidates[index];\r\n    }   \r\n\r\n    function golosovanie (uint _index, address _addr, uint choice) public {\r\n        if (_index < votings.length){\r\n            if (izb[_index][_addr] == true) {\r\n                if (choice < candidates[_index].length){\r\n                    candidates[_index][choice].score+=1;\r\n                    izb[_index][_addr] = false;\r\n                }\r\n            }\r\n            else revert(\"You are not on list or had already voted!\");\r\n        } \r\n        else revert(\"Index is out of range!\");\r\n    }\r\n\r\n    function getVotings(uint index) public view returns(string memory) {\r\n        return votings[index].name;\r\n    }\r\n}",
  "sourcePath": "F:\\ETHER\\contracts\\Golos.sol",
  "compiler": {
    "name": "solc",
    "version": "0.8.15+commit.e14f2714.Emscripten.clang"
  },
  "schemaVersion": "3.4.7",
  "updatedAt": "2022-06-21T11:35:29.889Z",
  "networkType": "ethereum",
  "devdoc": {
    "kind": "dev",
    "methods": {},
    "version": 1
  },
  "userdoc": {
    "kind": "user",
    "methods": {},
    "version": 1
  }
}